:020000040800F2
:1000000000500020751A00085D1900085F190008EB
:100010006119000863190008651900080000000054
:100020000000000000000000000000006719000848
:1000300069190008000000006B1900086D1900081C
:10004000BD1A0008BD1A0008BD1A0008BD1A000834
:10005000BD1A000871190008BD1A0008BD1A000871
:10006000BD1A0008BD1A0008BD1A0008BD1A000814
:10007000BD1A0008BD1A0008BD1A0008BD1A000804
:10008000BD1A0008BD1A0008BD1A0008BD1A0008F4
:10009000BD1A0008BD1A0008BD1A0008BD1A0008E4
:1000A000BD1A000875190008BD1A0008BD1A00081D
:1000B000BD1A0008BD1A0008BD1A0008BD1A0008C4
:1000C000BD1A0008BD1A0008BD1A0008BD1A0008B4
:1000D000BD1A0008BD1A0008BD1A0008BD1A0008A4
:1000E000BD1A0008BD1A0008BD1A00080000000073
:1000F0000000000000000000000000000000000000
:0C01000000000000000000005FF808F1A3
:10010C0010B5054C237833B9044B13B10448AFF345
:10011C0000800123237010BD0C00002000000000A3
:10012C00181B000808B5034B1BB103490348AFF378
:10013C00008008BD0000000010000020181B000803
:10014C0080F0004002E000BF81F0004142001FBF80
:10015C005FEA410392EA030F7FEA226C7FEA236C89
:10016C006AD04FEA1262D2EB1363C1BFD21841407E
:10017C0048404140B8BF5B42192B88BF704710F014
:10018C00004F40F4000020F07F4018BF404211F0B7
:10019C00004F41F4000121F07F4118BF494292EA1F
:1001AC00030F3FD0A2F1010241FA03FC10EB0C004B
:1001BC00C3F1200301FA03F100F0004302D54942D8
:1001CC0060EB4000B0F5000F13D3B0F1807F06D385
:1001DC0040084FEA310102F10102FE2A51D2B1F17D
:1001EC00004F40EBC25008BF20F0010040EA030072
:1001FC007047490040EB000010F4000FA2F101021F
:10020C00EDD1B0FA80FCACF1080CB2EB0C0200FAA8
:10021C000CF0AABF00EBC25052421843BCBFD040F6
:10022C001843704792F0000F81F4000106BF80F470
:10023C0000000132013BB5E74FEA41037FEA226C33
:10024C0018BF7FEA236C21D092EA030F04D092F0FE
:10025C00000F08BF0846704790EA010F1CBF002032
:10026C00704712F07F4F04D1400028BF40F000408F
:10027C00704712F100723CBF00F50000704700F0AF
:10028C00004343F0FE4040F4000070477FEA2262D6
:10029C0016BF08467FEA23630146420206BF5FEAA7
:1002AC00412390EA010F40F4800070474FF00003A7
:1002BC0004E000BF10F0004348BF40425FEA000C6E
:1002CC0008BF704743F0964301464FF000001CE016
:1002DC0050EA010208BF70474FF000030AE000BF6C
:1002EC0050EA010208BF704711F0004302D54042AA
:1002FC0061EB41015FEA010C02BF8446014600201C
:10030C0043F0B64308BFA3F18053A3F50003BCFA36
:10031C008CF2083AA3EBC25310DB01FA02FC6344E3
:10032C0000FA02FCC2F12002BCF1004F20FA02F2EA
:10033C0043EB020008BF20F00100704702F12002DD
:10034C0001FA02FCC2F1200250EA4C0021FA02F23E
:10035C0043EB020008BF20EADC7070474FF0FF0C43
:10036C001CEAD0521EBF1CEAD15392EA0C0F93EA3E
:10037C000C0F6FD01A4480EA010C400218BF5FEAE0
:10038C0041211ED04FF0006343EA501043EA511153
:10039C00A0FB01310CF00040B1F5000F3EBF49004D
:1003AC0041EAD3715B0040EA010062F17F02FD2A51
:1003BC001DD8B3F1004F40EBC25008BF20F0010034
:1003CC00704790F0000F0CF0004C08BF49024CEA4B
:1003DC00502040EA51207F3AC2BFD2F1FF0340EADD
:1003EC00C250704740F400004FF00003013A5DDC4E
:1003FC0012F1190FDCBF00F000407047C2F100028F
:10040C00410021FA02F1C2F1200200FA02FC5FEA7B
:10041C00310040F1000053EA4C0308BF20EADC70C5
:10042C00704792F0000F00F0004C02BF400010F437
:10043C00000F013AF9D040EA0C0093F0000F01F0E4
:10044C00004C02BF490011F4000F013BF9D041EA06
:10045C000C018FE70CEAD15392EA0C0F18BF93EA08
:10046C000C0F0AD030F0004C18BF31F0004CD8D132
:10047C0080EA010000F00040704790F0000F17BFB9
:10048C0090F0004F084691F0000F91F0004F14D0FF
:10049C0092EA0C0F01D142020FD193EA0C0F03D157
:1004AC004B0218BF084608D180EA010000F000405A
:1004BC0040F0FE4040F40000704740F0FE4040F435
:1004CC00400070474FF0FF0C1CEAD0521EBF1CEAD4
:1004DC00D15392EA0C0F93EA0C0F69D0A2EB0302F2
:1004EC0080EA010C49024FEA402037D04FF080538C
:1004FC0043EA111143EA10130CF000408B4238BF51
:10050C005B0042F17D024FF4000C8B4224BF5B1A5E
:10051C0040EA0C00B3EB510F24BFA3EB510340EAAC
:10052C005C00B3EB910F24BFA3EB910340EA9C005A
:10053C00B3EBD10F24BFA3EBD10340EADC001B01CA
:10054C0018BF5FEA1C1CE0D1FD2A3FF650AF8B426E
:10055C0040EBC25008BF20F0010070470CF0004C7B
:10056C004CEA50207F32C2BFD2F1FF0340EAC250A6
:10057C00704740F400004FF00003013A37E792F067
:10058C00000F00F0004C02BF400010F4000F013AC5
:10059C00F9D040EA0C0093F0000F01F0004C02BFC0
:1005AC00490011F4000F013BF9D041EA0C0195E729
:1005BC000CEAD15392EA0C0F08D142027FF47DAFC2
:1005CC0093EA0C0F7FF470AF084676E793EA0C0FB2
:1005DC0004D14B023FF44CAF08466EE730F0004CB0
:1005EC0018BF31F0004CCAD130F000427FF45CAF40
:1005FC0031F000437FF43CAF5FE700BF38B50E4BE2
:10060C00054618784FF47A73B3FBF0F30B4A106875
:10061C00B0FBF3F000F09EF8044658B90F2D09D842
:10062C00024629464FF0FF3000F054F8044B2046A8
:10063C001D6038BD012038BD0000002008000020DE
:10064C0004000020074A08B51368032043F0100388
:10065C00136000F02DF80020FFF7D0FF01F052F9E5
:10066C00002008BD00200240034A044B11681B788F
:10067C000B441360704700BF2C00002000000020CA
:10068C00014B1868704700BF2C00002038B5044699
:10069C00FFF7F6FF0546631C1EBF044B1B78E418DE
:1006AC00FFF7EEFF401B8442FAD838BD0000002053
:1006BC00074A0002D36800F4E06023F4E0631B04F3
:1006CC001B0C43F0BF6343F400330343D360704708
:1006DC0000ED00E0174B30B5DC68C4F30224C4F124
:1006EC000703251D042B28BF0423062D4FF00105FD
:1006FC0098BF002405FA03F303F1FF3388BF033CD2
:10070C001940A14005FA04F4013C2240002842EAB9
:10071C0001024FEA0212AFBF00F16040064B00F03D
:10072C000F00D2B2A5BFD2B200F561401A5480F8C6
:10073C00002330BD00ED00E014ED00E00123420980
:10074C0000F01F0003FA00F0014B43F82200704741
:10075C0000E100E00138B0F1807F0AD2F021064BB5
:10076C00064A586082F823100020072298601A600D
:10077C0070470120704700BF10E000E000ED00E082
:10078C002DE9F74F00221646654BDFF8A4E1DFF8A0
:10079C00A4C14FF001080C6808FA06F808EA040432
:1007AC00A0457FD14D68122D00F0AF8000F28880FB
:1007BC00022D00F0A7807CD8002D00F08E80012D3A
:1007CC0000F09E804FF00F09FF2C93BF824606F17C
:1007DC008045083DD0F800B092BFB500D0F804B009
:1007EC00AD0009FA05F82BEA080802FA05F588BFEE
:1007FC0000F1040A48EA0505CAF80050D1F804A033
:10080C001AF0805F4ED0474D464FAD6926F0030875
:10081C0045F00105BD61BD6908F1804805F0010591
:10082C00019508F5803806F0030B019D4FEA8B0B00
:10083C00D8F8085009FA0BF925EA09093A4DA842EB
:10084C0068D005F58065A84266D005F58065A8429C
:10085C0064D005F58065A8420CBF0325042505FA74
:10086C000BF545EA0905C8F808501D681AF4803FD5
:10087C0014BF2543A5431D605D681AF4003F14BFE7
:10088C002543A5435D609D681AF4801F14BF254362
:10089C00A5439D60DD681AF4001F14BF2C4325EAA4
:1008AC000404DC600136102E7FF473AF03B0BDE896
:1008BC00F08F032D22D0112D84D1CA68043281E728
:1008CC001A4FBD4209D012D8DFF86C904D4504D0B8
:1008DC0009F580394D457FF475AF8A68C2B1012A9C
:1008EC000CBFC0F81080C0F8148008226AE7754568
:1008FC00F3D06545F1D0DFF84490EBE7002261E7D7
:10090C00CA685FE7CA6808325CE7CA680C3259E704
:10091C00042257E70025A2E70125A0E702259EE760
:10092C0000040140001002400008014000002110AA
:10093C0000003110000032100000111000002210D5
:10094C008368194214BF0120002070470AB101616D
:10095C0070470904FBE7000003682DE9F341DB074E
:10096C00054610D42B689F075ED42B68190700F13D
:10097C0095802B685A0700F1BF80EA69002A40F085
:10098C002D81002014E0904C636803F00C03042BC1
:10099C0007D0636803F00C03082B0CD16368DE03EB
:1009AC0009D523689C03DDD56B68002BDAD10120B7
:1009BC0002B0BDE8F0816B68B3F5803F10D12368BD
:1009CC0043F480332360FFF75BFE064623689803ED
:1009DC00C8D4FFF755FE801B6428F7D90320E7E73E
:1009EC009BB9236823F480332360236823F480238A
:1009FC002360FFF745FE064623689903B2D5FFF73F
:100A0C003FFE801B6428F7D9E8E7B3F5A02F2368D5
:100A1C0003D143F480232360D1E723F48033236094
:100A2C00236823F48023CDE7674C636813F00C0F25
:100A3C0007D0636803F00C03082B10D16368DA034A
:100A4C000DD423689B0702D52B69012BAFD12368EA
:100A5C006A6923F0F80343EAC203236085E72A6935
:100A6C005A4B6AB101221A60FFF70AFE0646236848
:100A7C009F07ECD4FFF704FE801B0228F7D9ADE7E3
:100A8C001A60FFF7FDFD0646236898077FF56DAFEA
:100A9C00FFF7F6FD801B0228F6D99FE7AA694A4C9E
:100AAC004B4BDAB101221A60FFF7EAFD0646636A86
:100ABC009B070DD54FF4FA52464B1B68B3FBF2F370
:100ACC00019300BF019B5A1E0192002BF9D150E7F4
:100ADC00FFF7D6FD801B0228E9D97FE71A60FFF7E4
:100AEC00CFFD0646636A9F077FF543AFFFF7C8FD4E
:100AFC00801B0228F6D971E7334CE369D80024D463
:100B0C000127E36943F08053E361E36903F0805309
:100B1C000093009B304E3368D90518D5EB68012B38
:100B2C0026D1236A43F001032362FFF7A9FD41F2AA
:100B3C0088368046236A9B073FD5002F3FF41DAFB4
:100B4C00E36923F08053E36117E70027E2E733689A
:100B5C0043F480733360FFF793FD80463368DA0506
:100B6C00DCD4FFF78DFDA0EB08006428F6D935E73F
:100B7C00ABB9236A41F2883823F001032362236A5C
:100B8C0023F004032362FFF77BFD0646236A9807D4
:100B9C00D3D5FFF775FD801B4045F7D91EE7052B14
:100BAC00236A03D143F004032362BAE723F0010361
:100BBC002362236A23F00403B6E7FFF761FDA0EB81
:100BCC000800B042B6D909E70010024000004242CA
:100BDC00800442420800002000700040224C6368F0
:100BEC0003F00C03082B3FF4E2AE00231F4E022A45
:100BFC0033602BD1FFF744FD0746236899011FD4BE
:100C0C002B6AB3F5803F05D16268A96822F40032E3
:100C1C000A436260696A62680B4322F474121343DC
:100C2C00636001233360FFF72BFD054623689A01AF
:100C3C003FF5A7AEFFF724FD401B0228F6D9CDE601
:100C4C00FFF71EFDC01B0228D7D9C7E6FFF718FD1A
:100C5C00054623689B017FF594AEFFF711FD401B01
:100C6C000228F6D9BAE600BF0010024060004242EA
:100C7C0030B5194B87B002AC03F110052246186849
:100C8C005968083303C2AB421446F7D101238DF8DF
:100C9C000430022311498DF805304B6803F00C0227
:100CAC00082A17D1C3F3834206A80244DB0312F8C7
:100CBC00102C0CD54B680A48C3F34043504306AA8A
:100CCC00134413F8143CB0FBF3F007B030BD0548E7
:100CDC005043FAE70248F8E7301B000800100240C6
:100CEC0000127A0000093D00544A2DE9F0411368C6
:100CFC00054603F007038B420E462AD329688C075E
:100D0C0034D4CA0747D44D4A136803F007039E42F4
:100D1C00C0F082802A684A4C12F0040F40F08780A1
:100D2C00130706D563682A6923F4605343EAC203A8
:100D3C006360FFF79DFF6368424AC3F30313D35C00
:100D4C00D840414B18600020FFF758FC0020BDE84C
:100D5C00F081136823F007030B431360136803F04F
:100D6C0007039942CAD00120BDE8F081344B11F041
:100D7C00040F1EBF5A6842F4E0625A60080742BF73
:100D8C005A6842F460525A605A68A86822F0F0021D
:100D9C0002435A60B5E76A68294C012A23681CD1C2
:100DAC0013F4003FDFD0636841F2883823F003036B
:100DBC0013436360FFF764FC6B680746012B14D187
:100DCC00636803F00C03042B9DD0FFF759FCC01B88
:100DDC004045F5D90320BDE8F081022A02D113F079
:100DEC00007FDFE713F0020FDCE7022B0FD1636803
:100DFC0003F00C03082B86D0FFF742FCC01B4045C8
:100E0C00F5D9E7E7FFF73CFCC01B4045E2D8636827
:100E1C0013F00C0FF6D176E7136823F00703334376
:100E2C001360136803F007039E429CD172E763685A
:100E3C00E96823F4E0630B43636071E70020024030
:100E4C0000100240401B000808000020036800202E
:100E5C00DA6842F00102DA601A6842F001021A60A4
:100E6C00704790F83C3070B5012B4FF002031CD04A
:100E7C00012280F83D30036880F83C209A6822F407
:100E8C007F4222F077029A600A68402A79D019D8FA
:100E9C00102A00F093800AD8002A00F089800123E0
:100EAC0080F83D30002380F83C30184670BD202A75
:100EBC0000F08A80302AF2D19A6822F0700242F057
:100ECC00370236E0702A36D01BD8502A42D0602A1E
:100EDC00E5D11C6A4D6824F01004CE681C62996937
:100EEC001A6A21F4704122F0A00242EA051241EA8A
:100EFC00063199611A629A6822F0700242F0670218
:100F0C0017E0B2F5805F11D0B2F5005FC7D18A68E7
:100F1C004D689C68C9682A4324F47F4442EA012244
:100F2C0022439A609A6842F4804202E09A6822F066
:100F3C0007029A60B3E78A684D689C68C9682A43BF
:100F4C0024F47F4442EA012222439A609A6842F0D8
:100F5C007702EEE74C68CE68196A1D6A21F00A0127
:100F6C0025F001051D629A69214322F0F00242EA44
:100F7C0006129A6119629A6822F0700242F05702C6
:100F8C00D7E74C68CE68196A1D6A21F00A0125F072
:100F9C0001051D629A69214322F0F00242EA061211
:100FAC009A6119629A6822F0700242F04702C0E717
:100FBC009A6822F0700242F00702BAE79A6822F0AF
:100FCC00700242F01702B4E79A6822F0700242F005
:100FDC002702AEE77047704770477047036810B53B
:100FEC001A69044691070ED5DA6892070BD56FF093
:100FFC0002021A6101229B6902779B0777D0FFF7E7
:10100C00EAFF0023237723681A69500710D5DA68A2
:10101C0051070DD56FF004021A6102229B692277E9
:10102C0013F4407F204668D0FFF7D5FF00232377C9
:10103C0023681A6912070FD5DA6810070CD56FF000
:10104C0008021A610422DB692277990720465AD0DC
:10105C00FFF7C1FF0023237723681A69D20610D546
:10106C00DA68D0060DD56FF010021A610822DB6920
:10107C00227713F4407F20464BD0FFF7ACFF0023C0
:10108C00237723681A69D10708D5DA68D20705D502
:10109C006FF0010220461A6100F0D2FA23681A6937
:1010AC00100608D5DA68110605D56FF080022046C7
:1010BC001A6100F0AAF823681A69520608D5DA6892
:1010CC00500605D56FF0400220461A61FFF785FFE8
:1010DC0023681A69910622D5DA6892061FD56FF03B
:1010EC0020022046BDE810401A6100F08DB8FFF7D1
:1010FC0071FF2046FFF770FF83E7FFF76BFF204679
:10110C00FFF76AFF92E7FFF765FF2046FFF764FFE2
:10111C00A0E7FFF75FFF2046FFF75EFFAFE710BDCC
:10112C001A4A036890420AD0B0F1804F07D0A2F55A
:10113C009432904203D002F58062904215D14A68F5
:10114C0023F070031343114A90420AD0B0F1804F40
:10115C0007D0A2F59432904203D002F580629042FF
:10116C0003D1CA6823F4407313434A6923F0800304
:10117C00134303608B68C3620B688362034B984212
:10118C0004BF0B690363012343617047002C0140CA
:10119C0010B50446A0B190F83D3003F0FF021BB926
:1011AC0080F83C2000F042FC0223206884F83D309B
:1011BC00211DFFF7B5FF0123002084F83D3010BD41
:1011CC00012010BD90F83C3010B5012B4FF00203FC
:1011DC0018D080F83D3003680C685A68496822F0D2
:1011EC0070025A605A6822435A609A6822F0800250
:1011FC009A609A680A439A60012380F83D30002374
:10120C0080F83C30184610BD7047704710B5074C3D
:10121C00204600F055FA2046CC2100F0A8FA2046D2
:10122C00BDE81040442100F0A2BA00BF44000020E9
:10123C0073B52A4B0D461B78834202D8002002B0AE
:10124C0070BD274B0001C418C35C282BF6D1254870
:10125C0000F072FA0028F1D0224800F031FA214651
:10126C00204800F019FBBE211E4800F080FA002433
:10127C001C4E304600F08BFA0DF804000134052C9E
:10128C00F7D19DF801309DF80040164844EA03243C
:10129C0000F016FA9DF804302046C3F341130933CD
:1012AC000B2B11D00C2B14D00A2B08D0FFF702F803
:1012BC004FF07C51FFF752F828600120BFE7FEF792
:1012CC00F9FF4FF07A51F5E7FEF7F4FF4FF0785144
:1012DC00F0E7FEF7EFFF4FF07651EBE72800002028
:1012EC0034000020440000202DE9F041334B0D4622
:1012FC001B78834205D9324B0001C618C35C282BDE
:10130C0016D00020BDE8F0810A2D04D104F0BF04F2
:10131C0044F020042DE00B2D04D104F0DF0444F044
:10132C00400426E00C2D04BF44F06004E4B220E03D
:10133C00244800F0C5F93146224800F0ADFABE2130
:10134C00204800F014FA1F4800F021FA1D4800F064
:10135C001EFA1C4800F01BFA07461A4800F017FA50
:10136C008046184800F013FA092D0446CCD104F03D
:10137C009F04144800F0A4F93146124800F08CFA8E
:10138C004E21104800F0F3F939460E4800F0EFF901
:10139C0041460C4800F0EBF921460A4800F0E7F909
:1013AC00084800F08DF93146064800F075FA4821DE
:1013BC00044800F0DCF90120BDE8F0812800002091
:1013CC003400002044000020014800F0B5B900BFF3
:1013DC00440000202DE9F041FFF7F6FFC0B10024D6
:1013EC00A0460C4F0C4D3B78E0B2834201D8BDE8CF
:1013FC00F08101016E1886F80C806B5C282B01D0F3
:10140C000134F0E708312944FFF712FF3073F7E796
:10141C00BDE8F0812800002034000020084B1B7828
:10142C00984228BF1846074B03EB00104B1E0731A0
:10143C0010F8012F03F8012F8B42F9D1704700BF30
:10144C002800002033000020014B1878704700BFA3
:10145C0028000020044B03EB0013187B10B1012073
:10146C009B680B60704700BF340000202DE9F041F1
:10147C001A494FF480420746194800F028FA1848D8
:10148C0000F000FA0021174D174EDFF8548040B9D8
:10149C000C46002605EB0415F0B2844213D8BDE8C7
:1014AC00F08133784C1C013305EB0111404633704D
:1014BC0000F002FA404600F0ECF93378E4B2002B6D
:1014CC00E7D12146E3E72B78282B03D0FFF79EFECC
:1014DC000136E1E73946FFF707FFF7E70010014057
:1014EC00440000203400002028000020102270B599
:1014FC0088B00DEB0200002100F000FB1E4B1F4CCE
:10150C009A69204642F010029A619A694FF4C041E0
:10151C0002F010020192019A9A69012642F020020F
:10152C009A619A69002502F020020292029A9A6945
:10153C0042F004029A619B69002203F004030393B6
:10154C00039BFFF703FA4FF400530493032304A9FE
:10155C002046079305960695FFF712F94FF4804342
:10156C000493022304A92046059606950793FFF7DA
:10157C0007F908B070BD00BF001002400010014018
:10158C0010B590B02822002106A800F0B7FA00216F
:10159C00142201A800F0B2FA4FF480330122022485
:1015AC0007930E934FF4E01306A806920A920F933A
:1015BC000D94FFF7D1F90F234FF4806201930023B0
:1015CC00214601A80294039304920593FFF78CFB28
:1015DC0010B010BD73B5FFF735F8FFF7D1FFFFF76B
:1015EC0085FF00F0EDF9002205201146FFF772F897
:1015FC000520FFF7A3F81048FFF728FC0C20FFF795
:10160C0035FF0E4EFFF7E6FE0025FFF7FFFDFFF757
:10161C001BFFECB2844204D34FF47A70FFF736F818
:10162C00F0E731462046FFF715FF18B16946204612
:10163C00FFF7F4FE0135EAE7A00000205800002077
:10164C000268044B9A4204D1034A138801339BB2BB
:10165C0013807047002C01409C0000207047000054
:10166C000022034B1A801A8892B28242FBD970472F
:10167C009C0000201FB500230193029301230393C8
:10168C00838804A941F8103D0068FFF779F805B08C
:10169C005DF804FB1FB51123019300230293012372
:1016AC000393838804A941F8103D0068FFF768F89C
:1016BC0005B05DF804FB838802681B041361704756
:1016CC0010B50446FFF7F7FFFFF7E4FF4FF4F07097
:1016DC00FFF7C6FF2046FFF7CDFF4620FFF7C0FF00
:1016EC00A1882068FFF72CF901464FF4CD70FFF765
:1016FC00B7FF084610BD10B5044689B1FFF7DBFFF4
:10170C00FFF7C8FF0620FFF7ABFF2046FFF7B2FF3D
:10171C004020FFF7A5FF2046BDE81040FFF7AABF09
:10172C00FFF7C9FFFFF7B6FF3C20FFF799FF2046F4
:10173C00FFF7A0FF0A20ECE710B50446FFF7BBFF4C
:10174C00FFF7A8FF0220FFF78BFF2046FFF792FF61
:10175C000A20FFF785FFA1882068FFF7F1F8014602
:10176C003220FFF77DFF081C18BF012010BD70B59B
:10177C0006460D46082405F001013046013CFFF7F2
:10178C00BAFF14F0FF044FEA5505F4D170BD70B5E3
:10179C000646082500243046FFF7CEFF6408013DBD
:1017AC0044EAC01415F0FF05E4B2F4D1204670BD34
:1017BC002DE9F843037A04460D461BB9FFF780FF69
:1017CC00814628B10020A0712072E071BDE8F88339
:1017DC00012629462046FFF7CAFF4F4635462046CC
:1017EC00FFF7AAFF80462046FFF7A6FFB8F1010FCE
:1017FC0010D101282ED1402DE4D984F80690B9F1EE
:10180C00000F01D101232372637A002BDAD001205F
:10181C00BDE8F883804504EB070310D1A27995420B
:10182C0012D25A7A164214BF4FF001084FF000083A
:10183C00B8F1000F0ED1082D00D8E571A9465A7ADF
:10184C0022EA06025A720BE00CBF4FF001084FF06F
:10185C000008EDE74FF00108E219537A3343537255
:10186C00414620467600FFF746FF16F0FF0604BF00
:10187C000137FFB205F1010508BF0126072FEDB2B4
:10188C00ADD9B8E70022F02182710272C271FFF764
:10189C008FBFF021FFF78CBF70B50C465521064663
:1018AC00FFF765FF651E073415F8011F3046FFF77B
:1018BC005EFFA542F8D170BD00F10903013911306A
:1018CC0013F8012B834201F8012FF9D1704710B5A1
:1018DC00044601608280FFF7DDFE2368A288642045
:1018EC001A61FEF7D3FE2046FFF7E5FE6420FEF7F3
:1018FC00CDFE2368A288C820BDE810401A61FEF70F
:10190C00C5BE0000104B07B59A69062042F00102D3
:10191C009A619A6902F001020092009ADA6942F027
:10192C008052DA61DB6903F080530193019BFEF76F
:10193C00BFFE064A536823F0E06343F00073536024
:10194C0003B05DF804FB00BF001002400000014032
:10195C007047FEE7FEE7FEE7FEE77047704770470B
:10196C00FEF782BE704700000148FFF737BB00BF8F
:10197C00A00000200F4B1A6842F001021A6059684F
:10198C000D4A0A405A601A6822F0847222F480329E
:10199C001A601A6822F480221A605A6822F4FE0235
:1019AC005A604FF41F029A604FF00062034B9A602A
:1019BC00704700BF001002400000FFF800ED00E08F
:1019CC007FB51022002102A800F098F84722154894
:1019DC001549002380E806004FF6E8520093019366
:1019EC008360C260036143618361FFF7D1FB08B17F
:1019FC00FFF734FE4FF4805302A90A480293FFF715
:101A0C0030FA08B1FFF72AFE002369460548009317
:101A1C000193FFF7D7FB08B1FFF720FE07B05DF885
:101A2C0004FB00BFA0000020002C014007B50D4BAB
:101A3C0002689A4212D103F564439A69192042F460
:101A4C0000629A6100229B69114603F400630193C2
:101A5C00019BFEF73FFE1920FEF770FE03B05DF808
:101A6C0004FB00BF002C0140002103E00B4B5B5832
:101A7C00435004310A480B4B42189A42F6D30A4A97
:101A8C0002E0002342F8043B084B9A42F9D3FFF7DB
:101A9C0071FF00F00FF8FFF79DFD7047581B000811
:101AAC00000000200C0000200C000020E0000020B2
:101ABC00FEE7000070B500250C4E0D4CA41BA410C5
:101ACC00A54209D100F022F800250A4E0A4CA41BAD
:101ADC00A410A54205D170BD56F8253098470135A4
:101AEC00EEE756F8253098470135F2E7501B000811
:101AFC00501B0008501B0008541B000803460244EE
:101B0C00934200D1704703F8011BF9E7F8B500BF09
:101B1C00F8BC08BC9E467047F8B500BFF8BC08BCC2
:041B2C009E4670471A
:101B300002030405060708090A0B0C0D0E0F10100E
:101B4000000000000000000001020304060708096D
:041B50003101000857
:041B54000D01000877
:0C1B5800010000001000000000A24A0480
:0400000508001A7560
:00000001FF
